S01B000051756164726F5F635F636F6E74726F6C6C65722E7372656338
S11300006AC084C083C082C081C080C07FC07EC0FB
S11300107DC07CC07BC07AC0CBC078C077C076C0BE
S113002075C074C073C072C071C070C06FC06EC040
S11300306DC06CC024D99E860B24DF9E860B507342
S1130040E20050532E412008048120CFF7FEFFFF29
S113005020404B01E221C04B000022D0FC8C022343
S11300609900394124D996821B2524067FA62600AF
S11300700000002700000000280000000029000004
S113008000002A000000002B000000002C00127366
S1130090002D46B48000200F213F223F2303240873
S11300A02517260F2707280029002CC32DC42EC589
S11300B02FC63120322033203420352036203720FB
S11300C03C3F3D072B3543101002303443101001E0
S11300D02A344310100111241FBECFEFD2E0DEBF3B
S11300E0CDBF11E0A0E0B1E0EEE0F5E002C0059084
S11300F00D92AC34B107D9F721E0ACE4B1E001C012
S11301001D92A335B207E1F702D0FFC179CFCF9397
S1130110DF931F92CDB7DEB712E014B915B888E7A4
S11301208AB980E18BB92FEF82E597E021508040B6
S11301309040E1F700C000008CE090E0C9D180E07D
S113014091E0D8D164E08FEFACD109D188E08BD0B5
S11301508AE191E0CFD181E88093800010938100FF
S113016010928500109284008FE790E090938B00AA
S113017080938A0080916F00846080936F00CE0129
S11301800196A4D090E09093520180935101809104
S1130190510190915201892B91F3809151019091D9
S11301A05201A1D1CE010196A5D189E09CD1E7CF1E
S11301B01F920F920FB60F9211242F938F939F9338
S11301C080914C0190914D010196843E23E0920769
S11301D028F490934D0180934C0104C010924D017A
S11301E010924C019F918F912F910F900FBE0F9001
S11301F01F901895209A2898529808958EBD0DB492
S113020007FEFDCF8EB508952A98EFECF7E03197FD
S1130210F1F700C00000F2DF80E0F0DF2A9AEFEC93
S1130220F7E03197F1F700C000000895CF93DF9312
S11302301F92CDB7DEB72A98EFECF7E03197F1F7CC
S113024000C000006983DADF6981862FD7DF2A9A2C
S11302508FEC97E00197F1F700C0000081E00F9068
S1130260DF91CF910895682F85E2E0CFEF92FF925E
S11302700F931F93CF93DF931F92CDB7DEB7162F43
S1130280042F2A98EFECF7E03197F1F700C0000053
S11302907983B4DFE12E7981F72E05C080E0AEDFEB
S11302A0F70181937F018E2D811B8017B8F32A9A61
S11302B08FEC97E00197F1F700C000000F90DF91F9
S11302C0CF911F910F91FF90EF9008950F931F937B
S11302D0CF93DF93EC0187E097DF082F86FF10C0F0
S11302E080E692DF182F482FBE0181E6BFDF87E149
S11302F08BDF80FF06C0602F606487E297DF01C058
S113030010E0812FDF91CF911F910F9108950F93EA
S11303101F93CF93DF931F92CDB7DEB72A98EFECEC
S1130320F7E03197F1F700C000008C01680F07C0B7
S1130330F8010F5F1F4F8491698360DF6981601347
S1130340F7CF2A9A8FEC97E00197F1F700C00000ED
S113035081E00F90DF91CF911F910F91089562E09A
S113036080E490E0D4DF87E04FDF682F87E25EDF30
S1130370289880E049DF682F616080E257DF289A7F
S11303800895CF93C82F87E03FDF8078CC2339F0DE
S1130390811107C062E082E490E0CF91B8CF81116F
S11303A0F9CFCF9108951F93CF93DF9380E0E9DFD6
S11303B0C0E0D0E0CE01880F991FFC01E956FF4F41
S11303C06491FC01EA56FF4F849130DF2196C431D9
S11303D0D10581F766E080ED90E099DF66E084EC7A
S11303E090E095DF66E08AEC90E091DF8DE10CDF30
S11303F0811104C062E08EE390E089DFE3ECF0E079
S11304006491E2ECF0E0849111DFE1ECF0E06491BE
S1130410E0ECF0E084910ADF81E0B3DFC0E0D0E0FB
S113042015E01C9FC0011D9F900D112465E0805BA9
S11304309F4F6DDF2196CE30D10599F76CE084E4AF
S113044090E065DF65E089E390E061DF65E084E3E7
S113045090E05DDF2FEB84ED91E0215080409040EF
S1130460E1F700C0000080E08CDFDF91CF911F91A5
S113047076CF2CB5982F93702C7F922B9CBD9DB575
S113048082FB882780F99E7F892B8DBD089594B1C6
S11304909C6294B92A9A95B1977D95B990E59CBDD3
S11304A0E8CFCF93DF931F92CDB7DEB76983A2DE87
S11304B06981862FECDF2FEF83ED90E3215080409C
S11304C09040E1F700C000000F90DF91CF916BCF17
S11304D09093C5008093C4008EE08093C20088E1AD
S11304E08093C10008959091C00095FFFCCF809344
S11304F0C6000895CF93DF93EC0101C0F4DF899126
S11105008111FCCFDF91CF910895F894FFCFC5
S113050E51756164726F5F6320626F6172642076ED
S113051E2E312E302E30210D0A002A2A2A2A2A2A7A
S113052E2A2A2A2A57656C636F6D6520746F2045DD
S113053E57535F52464D373021212121212A2A2A31
S10F054E2A2A2A2A2A2A2A0A0D0A0D0049
S9030000FC
