:100000000C9407010C9424010C9424010C942401F9
:100010000C9424010C9424010C9424010C942401CC
:100020000C9424010C9424010C9424010C942401BC
:100030000C94CF030C9424010C9424010C942401FF
:100040000C9424010C9424010C9424010C9424019C
:100050000C9424010C9424010C9424010C9424018C
:100060000C9424010C9424012A34431010013034E0
:10007000431010012B3543101002200F213F223F67
:10008000230324082517260F2707280029002CC33F
:100090002DC42EC52FC631203220332034203520E8
:1000A000362037203C3F3D0720404B01E221C04B2A
:1000B000000022D0FC8C02239900394124D9968279
:1000C0001B2524067FA62600000000270000000054
:1000D000280000000029000000002A000000002B7A
:1000E000000000002C001273002D46B480002E4149
:1000F0002008048120CFF7FEFFFF5053E200E1000B
:10010000507324DF9E860B24D99E860B6E616E0091
:10011000696E660000407A10F35A00A0724E18090A
:100120000010A5D4E80000E87648170000E40B545E
:10013000020000CA9A3B000000E1F505000080962D
:100140009800000040420F000000A086010000005F
:10015000102700000000E803000000006400000019
:1001600000000A00000000000100000000002C76E2
:10017000D888DC674F0823DFC1DFAE59E1B1B796FD
:10018000E5E3E453C63AE651997696E8E6C284265A
:10019000EB898C9B62ED407C6FFCEFBC9C9F40F236
:1001A000BAA56FA5F490055A2AF75C936B6CF967B2
:1001B0006DC11BFCE0E40D47FEF520E6B500D0ED77
:1001C000902E0300943577050080841E08000020DF
:1001D0004E0A000000C80C333333330F986E12837D
:1001E0001141EF8D2114893BE65516CFFEE6DB1851
:1001F000D1844B381BF77C1D901DA4BBE424203216
:1002000084725E228100C9F124ECA1E53D2711240E
:100210001FBECFEFD8E0DEBFCDBF11E0A0E0B1E060
:10022000E8E3FCE102C005900D92AC35B107D9F7C7
:1002300011E0ACE5B1E001C01D92A536B107E1F7D0
:100240000E9404020C941A0E0C94000080E2809329
:10025000B8001092B900089584688093BC00809122
:10026000BC0087FFFCCF8091B900887F089580E2B1
:100270000E942C01089584E98093BC000895809326
:10028000BB0080E00E942C010895882321F080E4C7
:100290000E942C01089580E00E942C010895FF9295
:1002A0000F931F93182F062FF42E0E9426010E94F1
:1002B0003701883011F0803179F4812F0E943F019D
:1002C000883151F4802F0E943F01883229F48F2D0C
:1002D0000E943F01883219F08091B90004C084E97E
:1002E0008093BC0080E01F910F91FF9008951F93B1
:1002F000DF93CF930F92CDB7DEB7182F69830E949B
:100300003701812F0E943F016981862F80680E94FA
:100310003F010E943701812F81600E943F0180E0F0
:100320000E9445018091BB0094E99093BC000F901E
:10033000CF91DF911F91089588E360E247E40E9426
:100340004F01882311F08FEF089580E00895682F02
:1003500088E30E9477018195089580ED60E24FE087
:100360000E944F01882371F480ED63E240EB0E940C
:100370004F01882339F480ED64E240E80E944F0188
:10038000882311F08FEF089580E0089580ED67E2F3
:100390000E9477018878883011F481E008958FEF0A
:1003A00008950F931F93CF93DF93082F0E94370177
:1003B00080ED0E943F01802F80680E943F010E94D3
:1003C000370181ED0E943F0181E00E944501CBEBA6
:1003D000D0E0088110E080E00E9445012881922F42
:1003E00080E0082B192B84E98093BC0010950195BF
:1003F0001F4FC801DF91CF911F910F91089580ED9C
:100400006FE00E94770108952F923F924F925F9282
:100410006F927F928F929F92AF92BF92CF92DF9214
:10042000EF92FF920F931F93DF93CF93CDB7DEB779
:100430002B970FB6F894DEBF0FBECDBF82E084B914
:1004400015B888E78AB980E18BB98EE491E0909382
:100450006201809361016FEF72E587E06150704047
:100460008040E1F700C000008CE090E00E94F106BF
:1004700080E091E00E94870D0E949C01882321F476
:1004800088E191E00E94870D0E94AD01882321F44C
:1004900087E291E00E94870D78948FEF94E3ACE0BF
:1004A00081509040A040E1F700C0000081EA84BD87
:1004B00082E085BD16BC17BC18BC91E89093800003
:1004C0008093810010928500109284001092890020
:1004D0001092880091E29093B0008093B100109246
:1004E000B2001092B4008FE790E090938B0080935D
:1004F0008A0080916F00846080936F00789428EE6A
:10050000422E23E0522ECC24882477246624DD2436
:10051000BB24AA249924FF2410E000E0EE240E94CA
:10052000C6018823E1F388E20E94D101DC01BD010C
:10053000882777FD8095982F0E940F089B01AC01BA
:100540006F2D712F802F9E2D0E941007F62E172FD2
:10055000082FE92E8AE20E94D101FC01BF01882701
:1005600077FD8095982F0E940F089B01AC016D2D9F
:100570007B2D8A2D992D0E941007D62EB72EA82EDE
:10058000992E8CE20E94D1019C01B901882777FD48
:100590008095982F0E940F089B01AC01F3016C2DF0
:1005A000782D8F2F962D0E941007C62E872E782E1D
:1005B000692E0894410851084114510409F0AFCF45
:1005C0006F2D712F802F9E2D20E030E04AE754E4FC
:1005D0000E9474076C837D838E839F836D2D7B2D9A
:1005E0008A2D992D20E030E04AE754E40E947407F8
:1005F000688779878A879B8793016C2D782D832F55
:10060000922F20E030E04AE754E40E9474072B0167
:10061000382E292E95E3892E91E0992E82E4682EBA
:1006200081E0782E17BC18BC1092890010928800C7
:100630001092B40080915E018130A1F78BB130E15E
:1006400083278BB989E20E94A70189838BE20E94EC
:10065000A7018A838DE20E94A7018B8349812A81A9
:100660008B816DB77EB7685070400FB6F8947EBF2F
:100670000FBE6DBFEDB7FEB73196ADB7BEB71296E0
:100680009C928E921197552747FD50955383428334
:10069000332727FD309535832483992787FD90954F
:1006A000978386830E94720DEDB7FEB738960FB61A
:1006B000F894FEBF0FBEEDBF0E94C6018823E1F390
:1006C00088E20E94D1018C018AE20E94D1017C0162
:1006D0008CE20E94D1015C012DB73EB7285030401A
:1006E0000FB6F8943EBF0FBE2DBFCDB6DEB6089450
:1006F000C11CD11CADB7BEB712967C926E921197F9
:10070000B801882777FD8095982F0E940F08BC813B
:10071000AD81FE81EF812B2F3A2F4F2F5E2F0E944C
:100720000F070E94DC07F60173836283B7018827F5
:1007300077FD8095982F0E940F08B885A985FA85C6
:10074000EB852B2F3A2F4F2F5E2F0E940F070E9411
:10075000DC07D60115967C936E931497B501882714
:1007600077FD8095982F0E940F08F101242D352DDB
:100770004F2F522D0E940F070E94DC07F60177834E
:1007800066830E94720D10925E012DB73EB7285FFE
:100790003F4F0FB6F8943EBF0FBE2DBF43CF1F9201
:1007A0000F920FB60F9211242F938F939F938091E6
:1007B0005C0190915D01019690935D0180935C01D5
:1007C00027E0883C920738F010925D0110925C019E
:1007D00081E080935E019F918F912F910F900FBECA
:1007E0000F901F901895209A2898529808958EBDC2
:1007F0000DB407FEFDCF8EB508952A98EFECF7E013
:100800003197F1F700C000000E94F70380E00E94DA
:10081000F7032A9AEFECF7E03197F1F700C00000F8
:100820000895EF92FF921F93DF93CF930F92CDB76E
:10083000DEB77C01162F289A87E149830E94FD03C9
:10084000498185FD21C02A988FEC97E00197F1F747
:1008500000C00000442311F480EB01C080EA0E9434
:10086000F70306C0F70181917F010E94F703115041
:100870001123C1F72A9A8FEC97E00197F1F700C096
:100880000000289881E001C080E00F90CF91DF91B7
:100890001F91FF90EF90089585E00E94FD03089559
:1008A000DF93CF930F92CDB7DEB72A98EFECF7E046
:1008B0003197F1F700C0000069830E94F703698156
:1008C000862F0E94F7032A9A8FEC97E00197F1F7A1
:1008D00000C0000081E00F90CF91DF9108951F9339
:1008E000182F1150163078F482E00E94FD0361E069
:1008F00070E002C0660F771F1A95E2F760956823D3
:1009000082E20E9450041F9108951F93182F1150E6
:10091000163070F482E00E94FD0361E070E002C0D6
:10092000660F771F1A95E2F7682B82E20E94500447
:100930001F910895682F85E20E9450040895EF9258
:10094000FF920F931F93DF93CF930F92CDB7DEB734
:10095000162F042F2A98EFECF7E03197F1F700C03B
:10096000000079830E94F7037981412F572F7A0184
:1009700006C080E00E94F703F70181937F018E2D6E
:10098000811B8017B0F32A9A8FEC97E00197F1F75B
:1009900000C000000F90CF91DF911F910F91FF9049
:1009A000EF9008950F931F93CF93DF93EC0187E0AF
:1009B0000E94FD03082F86FF14C080E60E94FD03FD
:1009C000182F81E6BE01412F0E949F0487E10E94FB
:1009D000FD0380FF07C0602F606487E20E9450041F
:1009E00001C010E0812FDF91CF911F910F910895E9
:1009F0000F931F93DF93CF930F92CDB7DEB78C0188
:100A00002A988FEC97E00197F1F700C0000009C029
:100A1000F8010F5F1F4F849169830E94F70369817A
:100A200061506623A9F72A9AEFECF7E03197F1F7C6
:100A300000C0000081E00F90CF91DF911F910F91D6
:100A400008958CEF90E062E00E94F80408958EEF24
:100A500090E062E00E94F80408958EEF90E062E07A
:100A60000E94F804289880E00E94FD03682F6E7FA2
:100A700080E20E945004289A08958CEF90E062E092
:100A80000E94F80487E00E94FD03682F87E20E941D
:100A90005004289880E00E94FD03682F616080E286
:100AA0000E945004289A08951F93182F87E00E94EF
:100AB000FD038078112319F0882341F402C08823B4
:100AC00029F08AEF90E062E00E94F8041F910895F7
:100AD000CF93DF9380E00E945405CAE7D0E0FE0187
:100AE0008491319664910E9450042296F0E0C23ABB
:100AF000DF07A9F788E690E066E00E94F80484E743
:100B000090E066E00E94F8048EE690E066E00E94C5
:100B1000F8048DE10E94FD03882329F480E091E030
:100B200062E00E94F804C6EAD0E0FE0184913196AA
:100B300064910E945004FE01329784912197FE0136
:100B400064910E94500481E00E945405C8EAD0E0FC
:100B5000CE0165E00E94F8042596F0E0CE3EDF0766
:100B6000B9F78EEE90E06CE00E94F80482E091E02C
:100B700065E00E94F80487E091E065E00E94F804D7
:100B80008FEB94EDA1E081509040A040E1F700C0D0
:100B9000000080E00E9454050E943D05DF91CF9146
:100BA00008951F93CF93DF93EB01142F2A98EFEC56
:100BB000F7E03197F1F700C000000E94F70304C08E
:100BC00089910E94F70311501123D1F72A9A8FECD3
:100BD00097E00197F1F700C0000081E0DF91CF912D
:100BE0001F9108951F93CF93DF93EC01162F80E39D
:100BF000BE0142E00E94D1058AE2BE0142E00E94AD
:100C0000D1058CE10E94FD03113019F4682F616059
:100C100002C0682F6E7F8CE30E945004DF91CF9159
:100C20001F910895FF920F931F93142FF22E4132BC
:100C300008F069C0082F0150063008F064C0223067
:100C400008F061C0875F023028F4806242E00E94B1
:100C5000D10505C08062FB0160810E945004802F95
:100C60008F5E112371F18062612F0E94500481E038
:100C70000E94FD03FF2051F061E070E0002E02C0F1
:100C8000660F771F0A94E2F7682B0AC061E070E0F4
:100C9000002E02C0660F771F0A94E2F76095682362
:100CA00081E20E9450048CE10E94FD0361E070E04B
:100CB000002E02C0660F771F0A94E2F76095682342
:100CC0001AC0806260E20E94500481E00E94FD032D
:100CD00061E070E0002E02C0660F771F0A94E2F711
:100CE000162F682F612B81E20E9450048CE10E9434
:100CF000FD03682F612B8CE30E945004802F0E941B
:100D0000850481E001C080E01F910F91FF9008955C
:100D10001F93182F843050F486E00E94FD03897FD2
:100D2000612F660F682B86E20E9450041F91089580
:100D30002CB5982F93702C7F922B9CBD9DB58695DA
:100D4000869581709E7F892B8DBD089594B19C629C
:100D500094B92A9A95B1977D95B990E59CBD0E946A
:100D600098060895DF93CF930F92CDB7DEB76983CE
:100D70000E94F3036981862F0E94A6068FEF93EDF0
:100D8000A0E381509040A040E1F700C000000E9425
:100D900068050F90CF91DF9108958FEF64E00E9476
:100DA000B206089580E00E94540580E26DE00E9442
:100DB0005004089580E00E94540580E26FE00E9494
:100DC0005004089584B1886284B981E58CBD8CB5E6
:100DD0008F7D8CBD08958EBD0DB407FEFDCF8EB501
:100DE00008959093C5008093C4008EE08093C20064
:100DF00088E18093C10008959091C00095FFFCCFD9
:100E00008093C6000895CF93DF93EC0102C00E9447
:100E1000FC0689918823D9F7DF91CF910895505826
:100E2000BB27AA270ED04DC13ED130F043D120F0D0
:100E300031F49F3F11F41EF433C10EF4E095E7FB4B
:100E400029C1E92F4FD180F3BA17620773078407CE
:100E5000950718F071F49EF567C10EF4E0950B2E1E
:100E6000BA2FA02D0B01B90190010C01CA01A001FC
:100E70001124FF27591B99F0593F50F4503E68F157
:100E80001A16F040A22F232F342F4427585FF3CF98
:100E9000469537952795A795F0405395C9F77EF469
:100EA0001F16BA0B620B730B840BBAF09150A1F0B2
:100EB000FF0FBB1F661F771F881FC2F70EC0BA0F38
:100EC000621F731F841F48F4879577956795B795C0
:100ED000F7959E3F08F0B3CF9395880F08F09927B8
:100EE000EE0F9795879508950CD0EBC0E3D040F0B6
:100EF000DAD030F021F45F3F19F0CCC0511115C1A8
:100F0000CFC0F0D098F39923C9F35523B1F3951BC3
:100F1000550BBB27AA2762177307840738F09F5F1A
:100F20005F4F220F331F441FAA1FA9F333D00E2E89
:100F30003AF0E0E830D091505040E695001CCAF7F6
:100F400029D0FE2F27D0660F771F881FBB1F2617BB
:100F500037074807AB07B0E809F0BB0B802DBF018E
:100F6000FF2793585F4F2AF09E3F510568F092C0CB
:100F7000DCC05F3FECF3983EDCF386957795679590
:100F8000B795F7959F5FC9F7880F911D969587953F
:100F900097F90895E1E0660F771F881FBB1F62175E
:100FA00073078407BA0720F0621B730B840BBA0B1C
:100FB000EE1F88F7E095089504D06894B111B5C08C
:100FC000089598D088F09F5790F0B92F9927B7517E
:100FD000A0F0D1F0660F771F881F991F1AF0BA95FD
:100FE000C9F712C0B13081F09FD0B1E008959CC024
:100FF000672F782F8827B85F39F0B93FCCF38695F3
:1010000077956795B395D9F73EF49095809570954F
:1010100061957F4F8F4F9F4F0895E89409C097FBCC
:101020003EF490958095709561957F4F8F4F9F4FBF
:101030009923A9F0F92F96E9BB279395F695879503
:1010400077956795B795F111F8CFFAF4BB0F11F4C6
:1010500060FF1BC06F5F7F4F8F4F9F4F16C088236D
:1010600011F096E911C0772321F09EE8872F762FA3
:1010700005C0662371F096E8862F70E060E02AF0E4
:101080009A95660F771F881FDAF7880F96958795D0
:1010900097F9089597F99F6780E870E060E00895F8
:1010A0009FEF80EC089500240A9416161706180680
:1010B0000906089500240A9412161306140605065C
:1010C0000895092E0394000C11F4882352F0BB0FED
:1010D00040F4BF2B11F460FF04C06F5F7F4F8F4F50
:1010E0009F4F089557FD9058440F551F59F05F3F8B
:1010F00071F04795880F97FB991F61F09F3F79F03A
:1011000087950895121613061406551FF2CF4695BB
:10111000F1DF08C0161617061806991FF1CF86953D
:101120007105610508940895E894BB276627772721
:10113000CB0197F90895A3E1B0E0E1EAF8E00C945F
:10114000210C6C017F876E87FC01178216828381D8
:1011500081FD04C06FC34C855D8504C01E010894E9
:10116000211C311CF6019381EE85FF8593FD85914D
:1011700093FF8191FF87EE87882309F457C3853257
:1011800041F493FD859193FF8191FF87EE8785322E
:1011900059F490E0B6014A8B5B8B0E94460D4A8958
:1011A0005B895D874C87D7CF10E0FF2400E00032D9
:1011B000B0F48B3269F08C3228F4803251F08332F3
:1011C00071F40BC08D3239F0803349F401602CC0CA
:1011D0000260046029C0086027C0006125C007FDC7
:1011E0002EC0282F20532A3098F406FF08C0812FE4
:1011F000880F182F110F110F180F120F15C08F2DF8
:10120000880FF82EFF0CFF0CF80EF20E00620CC0D7
:101210008E3221F406FD0AC3006406C08C3611F438
:10122000006802C0883659F4EE85FF8593FD8591EC
:1012300093FF8191FF87EE87882309F0B8CF982F1D
:101240009554933018F40061805E06C0982F95562F
:10125000933008F09BC10F7E06FF16E06FE3E62E89
:10126000E022853619F4F0E4EF2A07C0863619F437
:1012700020E8E22A02C011111150E7FE06C01C331B
:1012800040F4912E939427E00BC0183030F4212FB6
:1012900006C027E03CE3932E03C027E017E0992423
:1012A000CA0104969D878C87FA01608171818281D1
:1012B0009381A101092D0E94580C5C016980262DA3
:1012C00030E0398B288B60FE03C0388933FF06C0BD
:1012D000E1FC06C0E2FE06C000E205C00DE203C06C
:1012E0000BE201C000E0888999898C7090700097AA
:1012F000C1F1002311F084E001C083E08F1558F4A0
:10130000F81AE3FC09C080E290E0B6010E94460DA5
:10131000FA94C9F701C0FF24002329F0802F90E040
:10132000B6010E94460D888983FD03C000E111E0EB
:101330000EC00CE011E00BC0A114B10409F0805202
:1013400090E0B6010E94460D0F5F1F4F05C0AE2C06
:10135000BB2490E1A922BB24F8018491882361F782
:1013600062C2E7FE0EC09A0CF889F4FF04C08A81BD
:10137000813309F49A94191454F5292D293050F524
:101380002DC0E6FC2BC0812F90E08A159B054CF008
:101390003CEFA3163FEFB30624F080E8E82A01C033
:1013A0001150112349F0E2E0F0E0EC0FFD1FE10FD6
:1013B000F11D80818033A1F3E7FE10C0912E93943C
:1013C000812F90E0A816B90644F41A1907C0992491
:1013D000939404C098E0992E01C010E0E7FE07C086
:1013E0001A141B043CF495012F5F3F4F05C025E004
:1013F00030E002C021E030E0002311F02F5F3F4FCA
:10140000112329F0812F90E00196280F391F8F2D8D
:1014100090E02817390714F4F21A01C0FF244E2C6B
:101420005524C20189709070009749F406C080E28B
:1014300090E0B6010E94460DFA94FF20C1F7002308
:1014400029F0802F90E0B6010E94460D43FC09C0B0
:1014500006C080E390E0B6010E94460DFA94FF209A
:10146000C1F7E7FE46C03501B7FE02C06624772407
:1014700025010894411C511C46185708420C531C66
:10148000F501E919F1094F01812F90E0002711279B
:10149000081B190BFFEF6F16FFEF7F0629F48EE292
:1014A00090E0B6010E94460DA614B70434F08614ED
:1014B00097041CF4F201808101C080E30894610864
:1014C00071080894411C511C601671062CF090E0C4
:1014D000B6010E94460DDECF6A147B0441F49A8166
:1014E000963320F4953319F4F889F4FF81E390E002
:1014F00049C08A81813311F02FEE622290E0B6015B
:101500000E94460D112389F08EE290E0B6010E9400
:10151000460D02E0F101E00FF11D0F5F808190E0C8
:10152000B6010E94460D1150A9F744FE03C085E4A0
:1015300090E002C085E690E0B6010E94460DB7FC3F
:1015400005C0A114B10441F464FE06C0B094A19496
:10155000B108B3948DE201C08BE290E0B6010E9425
:10156000460D80E305C08F5FE6EFFFEFAE0EBF1EB6
:10157000FAE0AF16B104BCF790E0B6010E94460D48
:10158000C501C096B6010E94460D4DC1833631F0AB
:10159000833789F0833509F059C022C09A012E5F44
:1015A0003F4F3D872C87FA0180818983310181E09B
:1015B000A82EB12C13C09A012E5F3F4F3D872C8778
:1015C000FA016080718006FF03C0612F70E002C0E5
:1015D0006FEF7FEFC3010E943B0D5C010F7714C0DA
:1015E0009A012E5F3F4F3D872C87FA016080718002
:1015F00006FF03C0612F70E002C06FEF7FEFC301F1
:101600000E94300D5C01006803FD1CC006C080E232
:1016100090E0B6010E94460DFA948F2D90E0A81636
:10162000B906A8F30FC0F30107FD859107FF81916B
:101630003F0190E0B6010E94460DF110FA94089423
:10164000A108B108A114B10471F7EDC0843611F0FE
:10165000893661F507FF0BC09A012C5F3F4F3D872C
:101660002C87FA0160817181828193810CC09A017B
:101670002E5F3F4F3D872C87FA016081718188275B
:1016800077FD8095982F0F7697FF08C090958095ED
:10169000709561957F4F8F4F9F4F0068A1012AE0A1
:1016A00030E00E94BC0D982E921841C0853721F47D
:1016B0000F7E2AE030E020C0097F8F36A9F0803706
:1016C00020F4883509F0B2C00BC0803721F088378C
:1016D00009F0ACC001C0006104FF09C0046007C08C
:1016E00004FF08C0066006C028E030E005C020E125
:1016F00030E002C020E132E007FF0AC0CA010496D0
:101700009D878C87FA01608171818281938109C0F4
:10171000CA0102969D878C87FA016081718180E001
:1017200090E0A1010E94BC0D982E92180F7706FF41
:1017300009C00E7F911630F404FF06C002FD04C0FC
:101740000F7E02C0E92C01C0E12E802F90E004FF43
:101750000CC0FE01E90DF11D2081203311F4097E3A
:1017600009C0E39402FF06C004C086789070009719
:1017700009F0E394A02EBB2403FD14C000FF0FC0AA
:10178000EF1428F4192D1F0D1E19EF2C08C0192D68
:1017900006C080E290E0B6010E94460DE394EF148B
:1017A000C0F304C0EF1410F4FE1801C0FF24A4FE1F
:1017B0000FC080E390E0B6010E94460DA2FE1FC05C
:1017C000A1FE03C088E590E010C088E790E00DC05E
:1017D000C50186789070009791F0A1FC02C080E26C
:1017E00001C08BE207FD8DE290E0B6010E94460D3C
:1017F00006C080E390E0B6010E94460D115091169C
:10180000C0F39A94F101E90DF11D808190E0B601D9
:101810000E94460D9920A9F706C080E290E0B6012B
:101820000E94460DFA94FF20C1F795CCF60126815F
:10183000378102C02FEF3FEFC9016396E2E10C94BC
:101840003D0C2F923F924F925F926F927F928F92B8
:101850009F92AF92BF92CF92DF92EF92FF920F933F
:101860001F93CF93DF93CDB7DEB7CA1BDB0B0FB649
:10187000F894DEBF0FBECDBF09942A883988488806
:101880005F846E847D848C849B84AA84B984C8849C
:10189000DF80EE80FD800C811B81AA81B981CE0F93
:1018A000D11D0FB6F894DEBF0FBECDBFED01089578
:1018B000283008F027E03327DA01990F311D87FD22
:1018C000916000966105710539F432602E5F3D9399
:1018D00030E32A95E1F708959F3F30F08038710595
:1018E000610509F03C5F3C5F3D93913008F08068F2
:1018F000911DDF93CF931F930F93FF92EF92192FB8
:10190000987F9695E92F96959695E90FFF27E259CE
:10191000FE4F99273327EE24FF24A701E701059006
:101920000894079428F4360FE71EF81E491F511D2E
:10193000660F771F881F991F0694A1F705900794DB
:1019400028F4E70EF81E491F561FC11D770F881F88
:10195000991F661F0694A1F70590079428F4F80EC6
:10196000491F561FC71FD11D880F991F661F771F5C
:101970000694A1F70590079420F4490F561FC71F3E
:10198000D81F990F661F771F881F0694A9F78491A7
:101990001095177041F0D695C79557954795F794D0
:1019A000E7941A95C1F7E4E1F1E068941590159178
:1019B00035916591959105907FE27395E118F10A53
:1019C000430B560BC90BD009C0F7E10CF11E431FA6
:1019D000561FC91FD01D7EF4703311F48A95E6CFCF
:1019E000E894015030F0080F0AF40027021708F4B9
:1019F000202F2395022F7A3328F079E37D932A95BF
:101A0000E9F710C07D932A9589F606949795679516
:101A1000379517951794E118F10A430B560BC90B2C
:101A2000D00998F023957E9173957A3308F070E38E
:101A30007C932013B8F77E9170617D9330F083958D
:101A400071E37D9370E32A95E1F71124EF90FF9005
:101A50000F911F91CF91DF91992787FD9095089560
:101A6000FC010590615070400110D8F78095909569
:101A70008E0F9F1F0895FC0161507040019001106E
:101A8000D8F7809590958E0F9F1F08950F931F9301
:101A9000CF93DF938C01EB018B8181FF1BC082FF11
:101AA0000DC02E813F818C819D812817390764F4F8
:101AB000E881F9810193F983E88306C0E885F98517
:101AC000802F0995009731F48E819F8101969F8325
:101AD0008E8302C00FEF1FEFC801DF91CF911F91DE
:101AE0000F910895A0E0B0E0E8E7FDE00C94310C20
:101AF000FE01359661917191809161019091620131
:101B0000AF010E949B082096E2E00C944D0CEF92EE
:101B1000FF920F931F93CF93DF938C01E0916101AC
:101B2000F0916201838181FF1FC0C0E0D0E00AC054
:101B3000DB011896ED91FC9119970995009711F02A
:101B4000CFEFDFEFF80181918F016091610170911A
:101B50006201882369F7DB011896ED91FC911997D2
:101B60008AE00995009711F0CFEFDFEFCE01CDB7F6
:101B7000DEB7E6E00C94490CFA01AA27283051F1AF
:101B8000203181F1E8946F936E7F6E5F7F4F8F4FAE
:101B90009F4FAF4FB1E03ED0B4E03CD0670F781F0D
:101BA000891F9A1FA11D680F791F8A1F911DA11DF2
:101BB0006A0F711D811D911DA11D20D009F468942B
:101BC0003F912AE0269F11243019305D3193DEF6D3
:101BD000CF010895462F4770405D4193B3E00FD089
:101BE000C9F7F6CF462F4F70405D4A3318F0495D74
:101BF00031FD4052419302D0A9F7EACFB4E0A69557
:101C00009795879577956795BA95C9F70097610578
:101C1000710508959B01AC010A2E069457954795CE
:101C200037952795BA95C9F7620F731F841F951FC3
:081C3000A01D0895F894FFCFF8
:101C380051756164726F5F6320626F6172642076B0
:101C48002E312E302E302100416363656C20696E81
:101C58006974206F6B21004779726F20696E69740F
:101C6800206F6B210025642C2025642C2025642CF2
:101C7800200025642C2025642C2025640A000000FF
:0C1C8800000200000000FC06000000004C
:00000001FF
