:100000006BC085C084C083C082C081C080C07FC0F7
:100010007EC07DC07CC07BC0D5C079C078C077C0B1
:1000200076C075C074C073C072C071C070C06FC03C
:100030006EC06DC024D99E860B24DF9E860B507344
:10004000E100E20050532E412008048120CFF7FE4A
:10005000FFFF20404B01E221C04B000022D0FC8C6E
:1000600002239900394124D996821B2524067FA6B4
:1000700026000000002700000000280000000029E2
:10008000000000002A000000002B000000002C00EF
:100090001273002D46B48000200F213F223F23031E
:1000A00024082517260F2707280029002CC32DC454
:1000B0002EC52FC631203220332034203520362063
:1000C00037203C3F3D072B3543101002303443109E
:1000D00010012A344310100111241FBECFEFD2E0CB
:1000E000DEBFCDBF11E0A0E0B1E0EAEFF4E002C076
:1000F00005900D92A030B107D9F721E0A0E0B1E062
:1001000001C01D92A430B207E1F702D0F4C178CF4C
:10011000C2E0C4B915B888E78AB980E18BB92FEF7E
:1001200082E597E0215080409040E1F700C0000058
:100130008CE090E0D5D178942FEF84E39CE02150BF
:1001400080409040E1F700C00000C6D1FFD088E0B9
:10015000D9D08AEB9EEF909301018093000181EA50
:1001600084BDC5BD16BC17BC18BC81E88093800057
:10017000C093810010928500109284001092890033
:100180001092880081E28093B000C093B100109279
:10019000B2001092B4008FE790E090938B008093B0
:1001A0008A00EFE6F0E08081846080837894A8E89C
:1001B000B0E0E4EBF0E017BC18BC11961C921E9264
:1001C0001082F9CF1F920F920FB60F9211242F9326
:1001D0003F934F935F936F937F938F939F93AF93CF
:1001E000BF93EF93FF9380910201909103010196D9
:1001F000843E23E0920728F4909303018093020148
:100200000DC010920301109202019BB180E1892779
:100210008BB940E062E080E091E02DD0FF91EF915A
:10022000BF91AF919F918F917F916F915F914F910E
:100230003F912F910F900FBE0F901F901895209A0D
:100240002898529808958EBD0DB407FEFDCF8EB547
:1002500008952A98EFECF7E03197F1F700C000001D
:10026000F2DF80E0F0DF2A9AEFECF7E03197F1F768
:1002700000C0000008950F931F93CF93DF93EC010C
:10028000162F042F289A87E1E4DF85FD1FC02A98E6
:100290008FEC97E00197F1F700C00000011105C055
:1002A00080EBD1DF111104C007C080EACCDFFACFA8
:1002B0008991C9DF1150E1F72A9A8FEC97E00197F5
:1002C000F1F700C00000289881E001C080E0DF91D4
:1002D000CF911F910F910895CF93C62F2A98EFECDD
:1002E000F7E03197F1F700C00000ADDF8C2FABDFF6
:1002F0002A9A8FEC97E00197F1F700C0000081E0A7
:10030000CF910895682F85E2E7DF08951F93CF937B
:10031000DF93EC01162F2A988FEC97E00197F1F705
:1003200000C00000662331F0FE01219684918BDF2E
:100330001150D1F72A9A8FEC97E00197F1F700C09E
:10034000000081E0DF91CF911F91089562E080E489
:1003500090E0DCDF289880E07CDF682F6E7F80E211
:10036000BBDF289A089562E082E490E0CFDF87E067
:1003700070DF682F87E2B0DF289880E06ADF682F9F
:10038000616080E2A9DF289A0895CF93C82F87E0A3
:1003900060DF8078CC2339F081110BC062E084E407
:1003A00090E0B4DF06C0882321F062E084E490E0AE
:1003B000ADDFCF910895CF93DF9380E0E6DFC0E01B
:1003C000D0E0CE01880F991FFC01E756FF4F6491E2
:1003D000FC01E856FF4F84917FDF2196C431D1059F
:1003E00081F766E082ED90E091DF66E086EC90E0D8
:1003F0008DDF66E08CEC90E089DF8DE12ADF8111F2
:1004000004C062E08EE390E081DFE5ECF0E064910F
:10041000E4ECF0E0849160DFE3ECF0E06491E2EC86
:10042000F0E0849159DF81E0B0DFC0E0D0E0CE01A0
:10043000880F991F880F991F8C0F9D1F65E08E5A9A
:100440009F4F64DF2196CE30D10589F76CE086E4BA
:1004500090E05CDF65E089E390E058DF65E084E3ED
:1004600090E054DF2FEB84ED91E0215080409040EC
:10047000E1F700C0000080E088DF75DFDF91CF91F9
:1004800008959CB5282F23709C7F922B9CBD2DB581
:1004900082FB992790F9822F8E7F892B8DBD08953D
:1004A00094B19C6294B92A9A95B1977D95B990E5DB
:1004B0009CBDE7DF0895CF93C62FC1DE8C2FF0DF00
:1004C0002FEF83ED90E3215080409040E1F700C092
:1004D000000071DFCF91089564E08FEFECDF0895A5
:1004E0009093C5008093C4008EE08093C20088E1A1
:0A04F0008093C1000895F894FFCF37
:00000001FF
